{
  "contractName": "Recipes",
  "abi": [
    {
      "constant": false,
      "inputs": [
        {
          "name": "hash",
          "type": "string"
        },
        {
          "name": "recipeType",
          "type": "string"
        },
        {
          "name": "origin",
          "type": "string"
        },
        {
          "name": "amount",
          "type": "uint256"
        }
      ],
      "name": "addRecipe",
      "outputs": [],
      "payable": false,
      "stateMutability": "nonpayable",
      "type": "function"
    },
    {
      "constant": false,
      "inputs": [
        {
          "name": "recipeIndex",
          "type": "uint256"
        }
      ],
      "name": "allowUserToView",
      "outputs": [],
      "payable": false,
      "stateMutability": "nonpayable",
      "type": "function"
    },
    {
      "constant": true,
      "inputs": [
        {
          "name": "recipeIndex",
          "type": "uint256"
        }
      ],
      "name": "isAllowedToView",
      "outputs": [
        {
          "name": "",
          "type": "bool"
        }
      ],
      "payable": false,
      "stateMutability": "view",
      "type": "function"
    },
    {
      "constant": false,
      "inputs": [
        {
          "name": "_index",
          "type": "uint256"
        }
      ],
      "name": "buySubscription",
      "outputs": [],
      "payable": true,
      "stateMutability": "payable",
      "type": "function"
    },
    {
      "constant": false,
      "inputs": [],
      "name": "cashOut",
      "outputs": [],
      "payable": false,
      "stateMutability": "nonpayable",
      "type": "function"
    },
    {
      "constant": false,
      "inputs": [
        {
          "name": "index",
          "type": "uint256"
        }
      ],
      "name": "deleteIndex",
      "outputs": [],
      "payable": false,
      "stateMutability": "nonpayable",
      "type": "function"
    },
    {
      "constant": true,
      "inputs": [],
      "name": "getBalance",
      "outputs": [
        {
          "name": "balance",
          "type": "uint256"
        }
      ],
      "payable": false,
      "stateMutability": "view",
      "type": "function"
    },
    {
      "constant": true,
      "inputs": [],
      "name": "getRecipeCount",
      "outputs": [
        {
          "name": "",
          "type": "uint256"
        }
      ],
      "payable": false,
      "stateMutability": "view",
      "type": "function"
    },
    {
      "constant": true,
      "inputs": [
        {
          "name": "index",
          "type": "uint256"
        }
      ],
      "name": "getRecipeIndexesAt",
      "outputs": [
        {
          "name": "",
          "type": "uint256"
        }
      ],
      "payable": false,
      "stateMutability": "view",
      "type": "function"
    },
    {
      "constant": true,
      "inputs": [
        {
          "name": "index",
          "type": "uint256"
        }
      ],
      "name": "getSpecificIndexRecipe",
      "outputs": [
        {
          "name": "owner",
          "type": "address"
        },
        {
          "name": "ipfsHash",
          "type": "string"
        },
        {
          "name": "recipeType",
          "type": "string"
        },
        {
          "name": "timeCreated",
          "type": "uint256"
        },
        {
          "name": "origin",
          "type": "string"
        },
        {
          "name": "amount",
          "type": "uint256"
        }
      ],
      "payable": false,
      "stateMutability": "view",
      "type": "function"
    },
    {
      "constant": true,
      "inputs": [
        {
          "name": "_index",
          "type": "uint256"
        }
      ],
      "name": "getUserTransactions",
      "outputs": [
        {
          "name": "owner",
          "type": "address"
        },
        {
          "name": "ipfsHash",
          "type": "string"
        },
        {
          "name": "recipeType",
          "type": "string"
        },
        {
          "name": "timeCreated",
          "type": "uint256"
        },
        {
          "name": "origin",
          "type": "string"
        },
        {
          "name": "amount",
          "type": "uint256"
        }
      ],
      "payable": false,
      "stateMutability": "view",
      "type": "function"
    }
  ],
  "bytecode": "0x608060405234801561001057600080fd5b506119d3806100206000396000f3006080604052600436106100af576000357c0100000000000000000000000000000000000000000000000000000000900463ffffffff16806312065fe0146100b457806349bd54cb146100df578063793cd71e1461010c5780639dc6d31e146101235780639e2cae331461014e578063b63a2acb14610193578063baef978714610352578063bd923e1514610372578063d06f56c9146103b3578063e969c494146103e0578063ef367ba11461059f575b600080fd5b3480156100c057600080fd5b506100c961069e565b6040518082815260200191505060405180910390f35b3480156100eb57600080fd5b5061010a600480360381019080803590602001909291905050506106e4565b005b34801561011857600080fd5b506101216108d0565b005b34801561012f57600080fd5b506101386109a1565b6040518082815260200191505060405180910390f35b34801561015a57600080fd5b50610179600480360381019080803590602001909291905050506109ae565b604051808215151515815260200191505060405180910390f35b34801561019f57600080fd5b506101be60048036038101908080359060200190929190505050610b04565b604051808773ffffffffffffffffffffffffffffffffffffffff1673ffffffffffffffffffffffffffffffffffffffff168152602001806020018060200186815260200180602001858152602001848103845289818151815260200191508051906020019080838360005b83811015610244578082015181840152602081019050610229565b50505050905090810190601f1680156102715780820380516001836020036101000a031916815260200191505b50848103835288818151815260200191508051906020019080838360005b838110156102aa57808201518184015260208101905061028f565b50505050905090810190601f1680156102d75780820380516001836020036101000a031916815260200191505b50848103825286818151815260200191508051906020019080838360005b838110156103105780820151818401526020810190506102f5565b50505050905090810190601f16801561033d5780820380516001836020036101000a031916815260200191505b50995050505050505050505060405180910390f35b61037060048036038101908080359060200190929190505050610db4565b005b34801561037e57600080fd5b5061039d60048036038101908080359060200190929190505050610e83565b6040518082815260200191505060405180910390f35b3480156103bf57600080fd5b506103de60048036038101908080359060200190929190505050610ea6565b005b3480156103ec57600080fd5b5061040b600480360381019080803590602001909291905050506111d1565b604051808773ffffffffffffffffffffffffffffffffffffffff1673ffffffffffffffffffffffffffffffffffffffff168152602001806020018060200186815260200180602001858152602001848103845289818151815260200191508051906020019080838360005b83811015610491578082015181840152602081019050610476565b50505050905090810190601f1680156104be5780820380516001836020036101000a031916815260200191505b50848103835288818151815260200191508051906020019080838360005b838110156104f75780820151818401526020810190506104dc565b50505050905090810190601f1680156105245780820380516001836020036101000a031916815260200191505b50848103825286818151815260200191508051906020019080838360005b8381101561055d578082015181840152602081019050610542565b50505050905090810190601f16801561058a5780820380516001836020036101000a031916815260200191505b50995050505050505050505060405180910390f35b3480156105ab57600080fd5b5061069c600480360381019080803590602001908201803590602001908080601f0160208091040260200160405190810160405280939291908181526020018383808284378201915050505050509192919290803590602001908201803590602001908080601f0160208091040260200160405190810160405280939291908181526020018383808284378201915050505050509192919290803590602001908201803590602001908080601f016020809104026020016040519081016040528093929190818152602001838380828437820191505050505050919291929080359060200190929190505050611535565b005b60008060003373ffffffffffffffffffffffffffffffffffffffff1673ffffffffffffffffffffffffffffffffffffffff16815260200190815260200160002054905090565b60016003600083815260200190815260200160002060000160003373ffffffffffffffffffffffffffffffffffffffff1673ffffffffffffffffffffffffffffffffffffffff16815260200190815260200160002060006101000a81548160ff021916908315150217905550600260003373ffffffffffffffffffffffffffffffffffffffff1673ffffffffffffffffffffffffffffffffffffffff16815260200190815260200160002060036000838152602001908152602001600020908060018154018082558091505090600182039060005260206000209060080201600090919290919091506001820154816001015560028201548160020155600382018160030190805460018160011615610100020316600290046108089291906117b3565b50600482018160040190805460018160011615610100020316600290046108309291906117b3565b50600582018160050190805460018160011615610100020316600290046108589291906117b3565b506006820160009054906101000a900473ffffffffffffffffffffffffffffffffffffffff168160060160006101000a81548173ffffffffffffffffffffffffffffffffffffffff021916908373ffffffffffffffffffffffffffffffffffffffff1602179055506007820154816007015550505050565b60008060003373ffffffffffffffffffffffffffffffffffffffff1673ffffffffffffffffffffffffffffffffffffffff16815260200190815260200160002054905060008060003373ffffffffffffffffffffffffffffffffffffffff1673ffffffffffffffffffffffffffffffffffffffff168152602001908152602001600020819055503373ffffffffffffffffffffffffffffffffffffffff166108fc829081150290604051600060405180830381858888f1935050505015801561099d573d6000803e3d6000fd5b5050565b6000600480549050905090565b600080600083600480549050811015156109c757600080fd5b60405180807f70617961626c6500000000000000000000000000000000000000000000000000815250600701905060405180910390209250600360008681526020019081526020016000206004016040518082805460018160011615610100020316600290048015610a705780601f10610a4e576101008083540402835291820191610a70565b820191906000526020600020905b815481529060010190602001808311610a5c575b505091505060405180910390209150816000191683600019161415610af7576003600086815260200190815260200160002060000160003373ffffffffffffffffffffffffffffffffffffffff1673ffffffffffffffffffffffffffffffffffffffff16815260200190815260200160002060009054906101000a900460ff169350610afc565b600193505b505050919050565b60006060806000606060008660048054905081101515610b2357600080fd5b6003600089815260200190815260200160002060060160009054906101000a900473ffffffffffffffffffffffffffffffffffffffff16600360008a8152602001908152602001600020600301600360008b8152602001908152602001600020600401600360008c815260200190815260200160002060070154600360008d8152602001908152602001600020600501600360008e815260200190815260200160002060010154848054600181600116156101000203166002900480601f016020809104026020016040519081016040528092919081815260200182805460018160011615610100020316600290048015610c5f5780601f10610c3457610100808354040283529160200191610c5f565b820191906000526020600020905b815481529060010190602001808311610c4257829003601f168201915b50505050509450838054600181600116156101000203166002900480601f016020809104026020016040519081016040528092919081815260200182805460018160011615610100020316600290048015610cfb5780601f10610cd057610100808354040283529160200191610cfb565b820191906000526020600020905b815481529060010190602001808311610cde57829003601f168201915b50505050509350818054600181600116156101000203166002900480601f016020809104026020016040519081016040528092919081815260200182805460018160011615610100020316600290048015610d975780601f10610d6c57610100808354040283529160200191610d97565b820191906000526020600020905b815481529060010190602001808311610d7a57829003601f168201915b505050505091509650965096509650965096505091939550919395565b60008160048054905081101515610dca57600080fd5b82346003600083815260200190815260200160002060010154141515610def57600080fd5b610df8846106e4565b6003600085815260200190815260200160002060060160009054906101000a900473ffffffffffffffffffffffffffffffffffffffff169250346000808573ffffffffffffffffffffffffffffffffffffffff1673ffffffffffffffffffffffffffffffffffffffff1681526020019081526020016000206000828254019250508190555050505050565b6000600482815481101515610e9457fe5b90600052602060002001549050919050565b60008060008360048054905081101515610ebf57600080fd5b843373ffffffffffffffffffffffffffffffffffffffff166003600083815260200190815260200160002060060160009054906101000a900473ffffffffffffffffffffffffffffffffffffffff1673ffffffffffffffffffffffffffffffffffffffff161480610f7d57503373ffffffffffffffffffffffffffffffffffffffff16600160009054906101000a900473ffffffffffffffffffffffffffffffffffffffff1673ffffffffffffffffffffffffffffffffffffffff16145b1515610f8857600080fd5b6001600480549050039450600486815481101515610fa257fe5b90600052602060002001549350600485815481101515610fbe57fe5b9060005260206000200154925082600487815481101515610fdb57fe5b906000526020600020018190555083600486815481101515610ff957fe5b9060005260206000200181905550600480548091906001900361101c919061183a565b50600360008681526020019081526020016000206003600088815260200190815260200160002060018201548160010155600282015481600201556003820181600301908054600181600116156101000203166002900461107e9291906117b3565b50600482018160040190805460018160011615610100020316600290046110a69291906117b3565b50600582018160050190805460018160011615610100020316600290046110ce9291906117b3565b506006820160009054906101000a900473ffffffffffffffffffffffffffffffffffffffff168160060160006101000a81548173ffffffffffffffffffffffffffffffffffffffff021916908373ffffffffffffffffffffffffffffffffffffffff16021790555060078201548160070155905050600360008681526020019081526020016000206000600182016000905560028201600090556003820160006111789190611866565b6004820160006111889190611866565b6005820160006111989190611866565b6006820160006101000a81549073ffffffffffffffffffffffffffffffffffffffff021916905560078201600090555050505050505050565b60006060806000606060006111e46118ae565b87600260003373ffffffffffffffffffffffffffffffffffffffff1673ffffffffffffffffffffffffffffffffffffffff168152602001908152602001600020805490508110151561123557600080fd5b600260003373ffffffffffffffffffffffffffffffffffffffff1673ffffffffffffffffffffffffffffffffffffffff1681526020019081526020016000208981548110151561128157fe5b906000526020600020906008020160e060405190810160405290816001820154815260200160028201548152602001600382018054600181600116156101000203166002900480601f0160208091040260200160405190810160405280929190818152602001828054600181600116156101000203166002900480156113485780601f1061131d57610100808354040283529160200191611348565b820191906000526020600020905b81548152906001019060200180831161132b57829003601f168201915b50505050508152602001600482018054600181600116156101000203166002900480601f0160208091040260200160405190810160405280929190818152602001828054600181600116156101000203166002900480156113ea5780601f106113bf576101008083540402835291602001916113ea565b820191906000526020600020905b8154815290600101906020018083116113cd57829003601f168201915b50505050508152602001600582018054600181600116156101000203166002900480601f01602080910402602001604051908101604052809291908181526020018280546001816001161561010002031660029004801561148c5780601f106114615761010080835404028352916020019161148c565b820191906000526020600020905b81548152906001019060200180831161146f57829003601f168201915b505050505081526020016006820160009054906101000a900473ffffffffffffffffffffffffffffffffffffffff1673ffffffffffffffffffffffffffffffffffffffff1673ffffffffffffffffffffffffffffffffffffffff16815260200160078201548152505091508160a00151826040015183606001518460c0015185608001518660000151849450839350819150975097509750975097509750505091939550919395565b60006003600060048054905081526020019081526020016000209050338160060160006101000a81548173ffffffffffffffffffffffffffffffffffffffff021916908373ffffffffffffffffffffffffffffffffffffffff160217905550848160030190805190602001906115ac929190611902565b506004805490508160020181905550838160040190805190602001906115d3929190611902565b50828160050190805190602001906115ec929190611902565b50428160070181905550670de0b6b3a76400008202816001018190555060018160000160003373ffffffffffffffffffffffffffffffffffffffff1673ffffffffffffffffffffffffffffffffffffffff16815260200190815260200160002060006101000a81548160ff021916908315150217905550806003600060048054905081526020019081526020016000206001820154816001015560028201548160020155600382018160030190805460018160011615610100020316600290046116b79291906117b3565b50600482018160040190805460018160011615610100020316600290046116df9291906117b3565b50600582018160050190805460018160011615610100020316600290046117079291906117b3565b506006820160009054906101000a900473ffffffffffffffffffffffffffffffffffffffff168160060160006101000a81548173ffffffffffffffffffffffffffffffffffffffff021916908373ffffffffffffffffffffffffffffffffffffffff160217905550600782015481600701559050506004808054905090806001815401808255809150509060018203906000526020600020016000909192909190915055505050505050565b828054600181600116156101000203166002900490600052602060002090601f016020900481019282601f106117ec5780548555611829565b8280016001018555821561182957600052602060002091601f016020900482015b8281111561182857825482559160010191906001019061180d565b5b5090506118369190611982565b5090565b815481835581811115611861578183600052602060002091820191016118609190611982565b5b505050565b50805460018160011615610100020316600290046000825580601f1061188c57506118ab565b601f0160209004906000526020600020908101906118aa9190611982565b5b50565b60e0604051908101604052806000815260200160008152602001606081526020016060815260200160608152602001600073ffffffffffffffffffffffffffffffffffffffff168152602001600081525090565b828054600181600116156101000203166002900490600052602060002090601f016020900481019282601f1061194357805160ff1916838001178555611971565b82800160010185558215611971579182015b82811115611970578251825591602001919060010190611955565b5b50905061197e9190611982565b5090565b6119a491905b808211156119a0576000816000905550600101611988565b5090565b905600a165627a7a723058208d5078e5f7ebf4cc814e9cae6dbf83cfce7d6d6cda89817c2f8405728c5b64d90029",
  "source": "pragma solidity ^0.4.24;\n\ncontract Recipes {\n    struct Recipe {\n        mapping ( address => bool) allowedToView;\n        uint etherAmount;\n        uint index;\n        string ipfsHash;\n        string recipeType;\n        string origin;\n        address owner;\n        uint timeCreated;\n    }\n\n    mapping (address => uint) balances;\n    address private owner;\n    mapping ( address => Recipe[]) usersTransactions;\n    mapping(uint => Recipe) recipes;\n    uint[] recipeIndexes;\n\n    modifier isEqualAmount(uint index) {\n        require(recipes[index].etherAmount == msg.value);\n        _; \n    }\n    \n    modifier indexExist(uint _index) {\n        require(_index < recipeIndexes.length);\n        _;\n    }\n    \n    modifier isRecipeOwner(uint _index) {\n        require(recipes[_index].owner == msg.sender || owner == msg.sender);\n        _;\n    }\n\n    modifier userTransactionIndexExist(uint index) {\n        require(index < usersTransactions[msg.sender].length);\n        _;\n    }\n\n    function addRecipe(string hash, string recipeType, string origin, uint amount) public {\n        Recipe storage recipe = recipes[recipeIndexes.length];\n        recipe.owner = msg.sender;\n        recipe.ipfsHash = hash;\n        recipe.index = recipeIndexes.length;\n        recipe.recipeType = recipeType;\n        recipe.origin = origin;\n        recipe.timeCreated = now;\n        recipe.etherAmount = amount * (10 ** 18);\n        recipe.allowedToView[msg.sender] = true;\n        recipes[recipeIndexes.length] = recipe;\n        recipeIndexes.push(recipeIndexes.length);\n    }\n\n    function allowUserToView(uint recipeIndex) public {\n        recipes[recipeIndex].allowedToView[msg.sender] = true;\n        usersTransactions[msg.sender].push(recipes[recipeIndex]);\n    }\n    \n    function isAllowedToView(uint recipeIndex)  public view indexExist(recipeIndex) returns (bool) { \n        bytes32 restrictedKey = keccak256(\"payable\");\n        bytes32 dataType = keccak256(recipes[recipeIndex].recipeType);\n        if (restrictedKey == dataType) {\n            return recipes[recipeIndex].allowedToView[msg.sender];\n        }\n        return true;\n    }\n\n    function buySubscription(uint _index) public indexExist(_index) isEqualAmount(_index) payable {\n        allowUserToView(_index);\n        address ownerAddress =  recipes[_index].owner;\n        balances[ownerAddress] += msg.value; \n    }\n   \n    function cashOut() public {\n        uint amount = balances[msg.sender];\n        balances[msg.sender] = 0;\n        msg.sender.transfer(amount);\n    }\n   \n    function deleteIndex(uint index) public indexExist(index) isRecipeOwner(index) {\n        uint lastIndex = recipeIndexes.length - 1;\n        uint currentIndexValue = recipeIndexes[index];\n        uint lastIndexValue = recipeIndexes[lastIndex];\n        recipeIndexes[index] = lastIndexValue;\n        recipeIndexes[lastIndex] = currentIndexValue;\n        recipeIndexes.length--;\n        recipes[index] = recipes[lastIndex];\n        delete recipes[lastIndex];\n    }\n\n    function getBalance() public view returns(uint balance) {\n        return balances[msg.sender];\n    } \n\n    function getRecipeCount() public view returns(uint) {\n        return recipeIndexes.length;\n    }\n    \n    function getRecipeIndexesAt(uint index) public view returns(uint) {\n        return recipeIndexes[index];\n    }\n\n    function getSpecificIndexRecipe(uint index) public view indexExist(index) \n        returns(\n            address owner, \n            string ipfsHash, \n            string recipeType, \n            uint timeCreated, \n            string origin, \n            uint amount\n        ) {\n            return (\n                recipes[index].owner,\n                recipes[index].ipfsHash,\n                recipes[index].recipeType,\n                recipes[index].timeCreated,\n                recipes[index].origin,\n                recipes[index].etherAmount\n            );\n    }\n    \n    function getUserTransactions(uint _index) public view userTransactionIndexExist(_index) \n        returns (address owner, string ipfsHash, string recipeType, uint timeCreated, string origin, uint amount) \n    {\n        Recipe memory recipe = usersTransactions[msg.sender][_index];\n        return (\n            recipe.owner,\n            recipe.ipfsHash,\n            recipe.recipeType,\n            recipe.timeCreated,\n            recipe.origin,\n            recipe.etherAmount\n        );\n    }\n}",
  "sourcePath": "/Users/caldz/Desktop/RecApp3.0/contracts/Recipes.sol",
  "compiler": {
    "name": "solc",
    "version": "0.4.24+commit.e67f0147.Emscripten.clang"
  },
  "schemaVersion": "2.0.1",
  "updatedAt": "2018-09-25T05:07:26.237Z"
}